:100000001F2A1B3083120313BA070318BB0A3030B0
:10001000C10083120313BB1B212815303B02031CB4
:100020002128031D172818303A02031C21288312A7
:100030000313C10A1530BB021830BA02031CBB03FC
:100040000928303083120313C20083120313BB1B31
:100050003D2802303B02031C3D28031D33281C3081
:100060003A02031C3D2883120313C20A0230BB026A
:100070001C30BA02031CBB03252830308312031343
:10008000C30083120313BB1B54283B08031D4C28D9
:1000900036303A02031C542883120313C30A363045
:1000A000BA02031CBB034128080083120313061E77
:1000B000A1289520A030D0205528A030FF00FF10A7
:1000C0007F18FF147F11FF187F15FF117F19FF158F
:1000D00095207F08D0207F08D0207F08D020A1283D
:1000E000A030FF00FF107F18FF147F11FF187F154D
:1000F000FF117F19FF15A130FF00FF107F18FF14BB
:100100007F11FF187F15FF117F19FF1595207F08BC
:10011000D0207F08D020A12095207F08D020B420B7
:100120007F08FF00A1207F08080083160313061232
:100130008312061683160613831206170612061379
:100140000800831603130613831206138316061280
:1001500083120612000000000000000006170000D5
:10016000000000000616080083120313061383160E
:100170000616FF01FF1BC02808307F020318CE2897
:10018000831203130613000000000000000006178E
:10019000FF0D7F10061A7F14FF0ABA287F08080097
:1001A00083120313BF00831606128312C001831249
:1001B0000313C01BDF28083040020318EB2883120A
:1001C0000313BF0D0613031C0612031806160617A9
:1001D0000000C00AD72883120313061383160616DD
:1001E00083120313061AF02883120313061708005C
:1001F000831203179E019F010313C4019520A030B1
:10020000D0209030D020A12883120313BA00BA085E
:10021000031D0D298030BA0013290F3083120313F8
:10022000BA059030BA079520A030D020831203136E
:100230003A08D020A128FF007F0883120313C400CE
:10024000080083120313BA00223044020318C401C9
:10025000831203133A08203A03195029103A03195C
:100260005929013A03196329033A03196D29013AFF
:1002700003197829073A03198329013A03198E29AA
:10028000033A03199929013A0319A4290F3A0319CA
:10029000AE29013A0319B929033A0319C429CE2911
:1002A000831203134408BB00BC01BD010030DD21F3
:1002B000D829831203134408BB003F30BC00BD01A2
:1002C0000030DD21D829831203134408BB003030ED
:1002D000BC00BD010030DD21D8298312031344087E
:1002E000BB006D30BC008430BD000030DD21D8295A
:1002F000831203134408BB007930BC008430BD0076
:100300000030DD21D829831203134408BB0072306A
:10031000BC008430BD000030DD21D82983120313D6
:100320004408BB005B30BC008430BD000030DD21E0
:10033000D829831203134408BB005F30BC0084300B
:10034000BD000030DD21D829831203134408BB000F
:100350003130BC00BD010030DD21D82983120313E8
:100360004408BB007F30BC008430BD000030DD217C
:10037000D829831203134408BB007B30BC008430AF
:10038000BD000030DD21D829831203134408BB00CF
:10039000BC014030BD000030DD21D8298312031399
:1003A0004408BB00FF30BC00FF30BD000030DD2141
:1003B000033083120313C407080083120313BE0023
:1003C0009520A030D020C030831203133B04D020EE
:1003D000831203133C08D020831203133D08D0205E
:1003E000831203133E08D020A12883120313BA00FE
:1003F0009520A030D0204130D020831203133A083A
:10040000D020A128831203179F11831603131812FB
:1004100083129817831618119B1533309900831295
:100420001816181308008312031398101816831255
:1004300003138C1E172A831203131A080800831251
:100440000313A201A301A401A501B701B80139104A
:10045000F8308316870083128701F82001300421C9
:100460000030F52102228312031307141322831292
:100470000313A00007102008243A031D5B2A13224F
:10048000473A031D5B2A1322503A031D5B2A1322AD
:10049000523A031D5B2A13224D3A031D5B2A132295
:1004A000433A031D5B2A83120313A201A401A30193
:1004B00039148714332A83120313391C252B20087F
:1004C0002A3A031D252B8710071518120730F5212E
:1004D00083120313A6012610071B2614A6108719E2
:1004E000A6142611071A2615A611871AA61526087E
:1004F0000421013083120313871B0230A8073A300E
:100500002802031C862AA70A0A30A80283120313B2
:100510002708323A031D942A34302802031C942AF7
:100520000230A7020430A80283120313A10106308F
:100530008312031321020318B72AA1080319A22A60
:100540003A302121273083120313210784008313BB
:100550000008212183120313A10A273021078400F8
:1005600083130008212183120313A10A972A8312FF
:100570000313B701B801A101023083120313250749
:1005800021020318EA2A38083807BB003708370762
:10059000BA000318BB0A3B08BB073A08BA0703189E
:1005A000BB0A3808BB073708BA070318BB0A3B0861
:1005B0003B07B8003A083A07B7000318B80A3130C9
:1005C00021078400831330300002B7070318B80AEC
:1005D000A10ABC2A831203133708BA003808BB00EB
:1005E00001202030212183120313A4080319192BA1
:1005F0004108303A0319032B4108212183120313C8
:1006000042082121142B831203134208303A0319A4
:10061000102B203021218312031342082121142B97
:10062000203021212030212183120313430821216E
:100630001F2B203021212030212120302121831225
:100640000313391018160711332A83120313391CA8
:100650002F2B20082C3A031D2F2BA20A332A83129A
:100660000313391C412B20082C3A0319412B220B70
:10067000412B273023078400831320088000A30A1E
:10068000332A83120313391C332A20082C3A031906
:10069000332A2208073A031D332A20082E3A031969
:1006A000592B313024078400831320088000A40ACA
:1006B000332A32308312031324078400831330302B
:1006C00080003330240784008313303080002408F6
:1006D000A500332AFF0083120313C4012030212117
:1006E0007F0821213A3021213030FF1B3130212178
:1006F00030307F1B313021213030FF1A3130212141
:1007000030307F1A313021213030FF193130212132
:1007100030307F19313021213030FF183130212124
:0C07200030307F18313021212030212999
:02400E00D400DC
:00000001FF
