:100000008D291B3083120313B9070318BA0A303045
:10001000C20083120313BA1B212815303A02031CB5
:100020002128031D172818303902031C21288312A8
:100030000313C20A1530BA021830B902031CBA03FE
:100040000928303083120313C30083120313BA1B31
:100050003D2802303A02031C3D28031D33281C3082
:100060003902031C3D2883120313C30A0230BA026B
:100070001C30B902031CBA03252830308312031345
:10008000C40083120313BA1B54283A08031D4C28DA
:1000900036303902031C542883120313C40A363045
:1000A000B902031CBA034128080083120313061E79
:1000B000A1289520A030D0205528A030FF00FF10A7
:1000C0007F18FF147F11FF187F15FF117F19FF158F
:1000D00095207F08D0207F08D0207F08D020A1283D
:1000E000A030FF00FF107F18FF147F11FF187F154D
:1000F000FF117F19FF15A130FF00FF107F18FF14BB
:100100007F11FF187F15FF117F19FF1595207F08BC
:10011000D0207F08D020A12095207F08D020B420B7
:100120007F08FF00A1207F08080083160313061232
:100130008312061683160613831206170612061379
:100140000800831603130613831206138316061280
:1001500083120612000000000000000006170000D5
:10016000000000000616080083120313061383160E
:100170000616FF01FF1BC02808307F020318CE2897
:10018000831203130613000000000000000006178E
:10019000FF0D7F10061A7F14FF0ABA287F08080097
:1001A00083120313C000831606128312C101831247
:1001B0000313C11BDF28083041020318EB28831208
:1001C0000313C00D0613031C0612031806160617A8
:1001D0000000C10AD72883120313061383160616DC
:1001E00083120313061AF02883120313061708005C
:1001F000831203179E019F010313C5019520A030B0
:10020000D0209030D020A12883120313BB00BB085C
:10021000031D0D298030BB0013290F3083120313F7
:10022000BB059030BB079520A030D020831203136C
:100230003B08D020A128FF007F0883120313C500CC
:020240000800B4
:1002420083120313BF009520A030D020C030831248
:1002520003133C04D020831203133D08D0208312E1
:1002620003133E08D020831203133F08D020A12895
:1002720083120313BC009520A030D0204130D0203F
:10028200831203133C08D020A128831203179F1165
:1002920083160313181283129817831618119B15CD
:1002A20033309900831218161813080083120313AF
:1002B20098101816831203138C1E5B2983120313E2
:1002C2001A08080083120313B90002308316810052
:1002D2008312031381017D30831203130102031C75
:1002E2006C2983120313B90B6929080083120313C3
:1002F200B9000730831681002730831203130107E8
:10030200BA00831203133A080106031D82298312DD
:100312000313B90B7D29080083120313A201A30161
:10032200A401A501B601B7013810FF30831685007C
:10033200F830870083128701F82007303921E22341
:1003420083120313A1010C30831203132102031839
:10035200B22920308A1500208A1183120313A10AC0
:10036200A4294F308A1500208A116430632170302D
:100372008A1500208A1165308A1500208A116E3094
:100382008A1500208A116430772103308312031307
:10039200C50048308A1500208A1164306321653017
:1003A2008A1500208A1161308A1500208A11643072
:1003B2008A1500208A1173308A1500208A11643050
:1003C2007721063083120313C50055308A150020A9
:1003D2008A116430632170308A1500208A1120301E
:1003E2008A1500208A1120308A1500208A112030B7
:1003F2008A1500208A116430772109308312031391
:10040200C50044308A1500208A11643063216930A6
:100412008A1500208A1173308A1500208A117030E3
:100422008A1500208A116C308A1500208A116130E9
:100432008A1500208A1179308A1500208A11FA3033
:10044200772183120313C50100303921462183121B
:100452000313051D9F2A78300705783A031D652A84
:100462000630392144308A1500208A1145308A1518
:1004720000208A1142308A1500208A1155308A15CF
:1004820000208A1147308A1500208A1120308A15EF
:1004920000208A1141308A1500208A1143308A15C2
:1004A20000208A1154308A1500208A1149308A1599
:1004B20000208A1156308A1500208A1145308A158B
:1004C20000208A1119249F2A78308312031307050A
:1004D200203A031D9F2A0730392154308A15002003
:1004E2008A1145308A1500208A1158308A15002059
:1004F2008A1154308A1500208A1120308A15002072
:100502008A1120308A1500208A1141308A15002074
:100512008A1143308A1500208A1154308A1500202E
:100522008A1149308A1500208A1156308A15002016
:100532008A1145308A1500208A11FF238312031382
:100542000714572183120313A00007102008243A2E
:10055200031DC72A5721473A031DC72A5721503A7C
:10056200031DC72A5721523A031DC72A57214D3A64
:10057200031DC72A5721433A031DC72A83120313B7
:10058200A201A401A301381487149F2A8312031322
:10059200381C9D2B20082A3A031D9D2B8710071516
:1005A200181207303921E223013083120313871B0B
:1005B2000230A7073A302702031CE22AA60A0A30B1
:1005C200A702831203132608323A031DF02A34309D
:1005D2002702031CF02A0230A6020430A70283126B
:1005E2000313A10106308312031321020318192BEE
:1005F200A1080319002B3A308A1500208A112630EF
:100602008312031321078400831300088A15002034
:100612008A1183120313A10A26302107840083134F
:1006220000088A1500208A1183120313A10AF32AF3
:1006320083120313B601B701A1010230831203131F
:100642002507210203184C2B37083707BA00360852
:100652003607B9000318BA0A3A08BA073908B907BF
:100662000318BA0A3708BA073608B9070318BA0ACC
:100672003A083A07B70039083907B6000318B70A2B
:10068200303021078400831330300002B60703188C
:10069200B70AA10A1E2B831203133608B9003708C2
:1006A200BA00012020308A1500208A118312031318
:1006B200A40803198B2B4208303A03196B2B42080A
:1006C2008A1500208A118312031343088A15002019
:1006D2008A11842B831203134308303A03197C2BAB
:1006E20020308A1500208A118312031343088A15C9
:1006F20000208A11842B20308A1500208A11203094
:100702008A1500208A118312031344088A150020D7
:100712008A11972B20308A1500208A1120308A15E1
:1007220000208A1120308A1500208A1183120313B7
:100732003810181607119F2A83120313381CA72B8F
:1007420020082C3A031DA72BA20A9F2A8312031307
:10075200381CB92B20082C3A0319B92B220BB92BC0
:10076200263023078400831320088000A30A9F2ACF
:1007720083120313381C9F2A20082C3A03199F2A3C
:100782002208073A031D9F2A20082E3A0319D12B6B
:10079200303024078400831320088000A40A9F2A93
:1007A2003130831203132407840083133030800016
:1007B2003230240784008313303080002408A500DF
:1007C2009F2A83120313B9013910071B3914B91078
:1007D2008719B9143911071A3915B911871AB915B8
:1007E20039080429FF007F0804217F087F020318CB
:1007F200FE2B7F080421FF0AF62B08008312031345
:10080200BA013A10071B3A14BA108719BA143A11EE
:10081200071A3A15BA11871ABA153A08042157214C
:1008220083120313B90039088A1500208A11FF2B9D
:10083200572183120313B900390EF039B900572139
:100842000F3983120313B907043039215721831258
:100852000313BA003A0EF039BA0057210F39831246
:100862000313BA07003039212230831203134502E1
:100872000318C501831203134508BC003908BD00E3
:100882003A08BE003B082121033083120313C50737
:1008920006303921192CFF0083120313C5012030C1
:1008A2008A1500208A117F088A1500208A113A30A1
:1008B2008A1500208A113030FF1B31308A15002042
:1008C2008A1130307F1B31308A1500208A11303076
:1008D200FF1A31308A1500208A1130307F1A3130E8
:1008E2008A1500208A113030FF1931308A15002014
:1008F2008A1130307F1931308A1500208A11303048
:10090200FF1831308A1500208A1130307F183130BB
:100912008A1500208A1120308A1500208A110800C9
:1010000083120313BB00223045020318C50183126B
:1010100003133B08203A0319E028073A0319EB2889
:101020000C3A0319F728073A03190429013A03195E
:101030001029033A03191D291E3A03192929013AD7
:1010400003193529033A03194129013A03194E2995
:10105000073A03195B29013A03196829033A03196E
:101060007529013A031982290F3A03198E29013A89
:1010700003199B29033A0319A829073A0319B4292C
:101080007C3A0319C129033A0319CE29013A0319FD
:10109000DB29073A0319E729013A0319F429033A2E
:1010A0000319012A013A03190E2A0F3A03191A2AC1
:1010B000013A0319272A033A0319332A013A03197B
:1010C0003F2A073A03194C2A013A0319582A033ACE
:1010D0000319652A013A0319722A1F3A03197F2A54
:1010E000013A03198C2A033A0319992A013A031980
:1010F000A62A073A0319B32A013A0319C02A033A68
:101100000319CC2A013A0319D92A0F3A0319E62AFE
:10111000013A0319F32A033A0319002B053A03197C
:101120000D2B3E3A0319192B033A0319262B013ACA
:101130000319332B073A03193F2B013A03194C2BA0
:10114000033A0319592B013A0319662B0F3A031975
:10115000722B013A03197F2B033A03198B2B013AA7
:101160000319972B073A0319A42B013A0319B02B43
:10117000033A0319BD2B013A0319CA2B1F3A03196D
:10118000D72B013A0319E42B033A0319F12B013A47
:101190000319FE2B073A03190B2C013A0319182CDB
:1011A000033A0319242C013A0319312C0F3A03197D
:1011B0003E2C013A03194B2C033A0319582C652C89
:1011C000831203134508BC00BD01BE0100308A1123
:1011D00021218A15712C831203134508BC00BD011F
:1011E0000130BE0000308A1121218A15712C831232
:1011F00003134508BC004030BD00D530BE000030B0
:101200008A1121218A15712C831203134508BC0011
:10121000BD011030BE0000308A1121218A15712CC9
:10122000831203134508BC004030BD008430BE006B
:1012300000308A1121218A15712C8312031345086D
:10124000BC00BD018030BE0000308A1121218A150A
:10125000712C831203134508BC003F30BD00BE0152
:1012600000308A1121218A15712C8312031345083D
:10127000BC003030BD00BE0100308A1121218A152A
:10128000712C831203134508BC006D30BD008430FF
:10129000BE0000308A1121218A15712C831203139C
:1012A0004508BC007930BD008430BE0000308A1192
:1012B00021218A15712C831203134508BC0072305A
:1012C000BD008430BE0000308A1121218A15712CA6
:1012D000831203134508BC005B30BD008430BE00A0
:1012E00000308A1121218A15712C831203134508BD
:1012F000BC005F30BD008430BE0000308A11212167
:101300008A15712C831203134508BC003130BD00CF
:10131000BE0100308A1121218A15712C831203131A
:101320004508BC007F30BD008430BE0000308A110B
:1013300021218A15712C831203134508BC007B30D0
:10134000BD008430BE0000308A1121218A15712C25
:10135000831203134508BC00BD014030BE000030BD
:101360008A1121218A15712C831203134508BC00B0
:101370004830BD008430BE0000308A1121218A151A
:10138000712C831203134508BC007730BD008430F4
:10139000BE0000308A1121218A15712C831203139B
:1013A0004508BC007930BD008A30BE0000308A118B
:1013B00021218A15712C831203134508BC000F30BC
:1013C000BD00BE0100308A1121218A15712C8312C3
:1013D00003134508BC003930BD000A30BE000030A0
:1013E0008A1121218A15712C831203134508BC0030
:1013F0004F30BD008430BE0000308A1121218A1593
:10140000712C831203134508BC004730BD008430A3
:10141000BE0000308A1121218A15712C831203131A
:101420004508BC005F30BD00BE0100308A1121219B
:101430008A15712C831203134508BC007630BD0059
:101440008430BE0000308A1121218A15712C83124C
:1014500003134508BC00BD01D130BE0000308A1125
:1014600021218A15712C831203134508BC003C30DE
:10147000BD00BE0100308A1121218A15712C831212
:1014800003134508BC00D630BD008430BE000030D8
:101490008A1121218A15712C831203134508BC007F
:1014A0000E30BD00BE0100308A1121218A15712C39
:1014B000831203134508BC00B630BD008230BE0065
:1014C00000308A1121218A15712C831203134508DB
:1014D000BC003630BD00A230BE0000308A11212190
:1014E0008A15712C831203134508BC008F30BD0090
:1014F0002030BE0000308A1121218A15712C831200
:1015000003134508BC006730BD008430BE000030C6
:101510008A1121218A15712C831203134508BC00FE
:101520008F30BD003030BE0000308A1121218A1575
:10153000712C831203134508BC006730BD00A43032
:10154000BE0000308A1121218A15712C83120313E9
:101550004508BC000B30BD00A430BE0000308A112D
:1015600021218A15712C831203134508BC00013018
:10157000BD00D130BE0000308A1121218A15712CA6
:10158000831203134508BC003E30BD00BE0100308D
:101590008A1121218A15712C831203134508BC007E
:1015A0002E30BD002030BE0000308A1121218A1566
:1015B000712C831203134508BC003630BD00A830DF
:1015C000BE0000308A1121218A15712C8312031369
:1015D0004508BC008030BD00AA30BE0000308A1132
:1015E00021218A15712C831203134508BC00623037
:1015F000BD00D430BE0000308A1121218A15712C23
:10160000831203134508BC008930BD008830BE003A
:1016100000308A1121218A15712C83120313450889
:10162000BC000830BD00BE0100308A1121218A159E
:10163000712C831203134508BC007730BD00843041
:10164000BE0000308A1121218A15712C83120313E8
:101650004508BC007930BD008A30BE0000308A11D8
:1016600021218A15712C831203134508BC000F3009
:10167000BD00BE0100308A1121218A15712C831210
:1016800003134508BC003930BD000A30BE000030ED
:101690008A1121218A15712C831203134508BC007D
:1016A0004F30BD008430BE0000308A1121218A15E0
:1016B000712C831203134508BC004730BD008430F1
:1016C000BE0000308A1121218A15712C8312031368
:1016D0004508BC005F30BD00BE0100308A112121E9
:1016E0008A15712C831203134508BC007630BD00A7
:1016F0008430BE0000308A1121218A15712C83129A
:1017000003134508BC00BD01D130BE0000308A1172
:1017100021218A15712C831203134508BC003C302B
:10172000BD00BE0100308A1121218A15712C83125F
:1017300003134508BC00D630BD008430BE00003025
:101740008A1121218A15712C831203134508BC00CC
:101750000E30BD00BE0100308A1121218A15712C86
:10176000831203134508BC00B630BD008230BE00B2
:1017700000308A1121218A15712C83120313450828
:10178000BC003630BD00A230BE0000308A112121DD
:101790008A15712C831203134508BC008F30BD00DD
:1017A0002030BE0000308A1121218A15712C83124D
:1017B00003134508BC006730BD008430BE00003014
:1017C0008A1121218A15712C831203134508BC004C
:1017D0008F30BD003030BE0000308A1121218A15C3
:1017E000712C831203134508BC006730BD00A43080
:1017F000BE0000308A1121218A15712C8312031337
:101800004508BC000B30BD00A430BE0000308A117A
:1018100021218A15712C831203134508BC00013065
:10182000BD00D130BE0000308A1121218A15712CF3
:10183000831203134508BC003E30BD00BE010030DA
:101840008A1121218A15712C831203134508BC00CB
:101850002E30BD002030BE0000308A1121218A15B3
:10186000712C831203134508BC003630BD00A8302C
:10187000BE0000308A1121218A15712C83120313B6
:101880004508BC008030BD00AA30BE0000308A117F
:1018900021218A15712C831203134508BC00623084
:1018A000BD00D430BE0000308A1121218A15712C70
:1018B000831203134508BC008930BD008830BE0088
:1018C00000308A1121218A15712C831203134508D7
:1018D000BC00FF30BD00FF30BE0000308A11212166
:0C18E0008A15033083120313C5070800AB
:02400E00D400DC
:00000001FF
